:020000040800F2
:10000000000002200D0500086D04000871040008BE
:1000100075040008790400087D0400080000000051
:100020000000000000000000000000008104000843
:100030008504000800000000890400088D04000801
:100040005D0500085D0500085D0500085D05000808
:100050005D0500085D0500085D0500085D050008F8
:100060005D0500085D0500085D0500085D050008E8
:100070005D0500085D0500085D0500085D050008D8
:100080005D0500085D0500085D0500085D050008C8
:100090005D0500085D0500085D0500085D050008B8
:1000A0005D0500085D0500085D0500085D050008A8
:1000B0005D0500085D0500085D0500085D05000898
:1000C0005D0500085D0500085D0500085D05000888
:1000D0005D050008910400085D0500085D05000845
:1000E0005D0500085D0500085D0500085D05000868
:1000F0005D0500085D0500085D0500085D05000858
:100100005D0500085D0500085D0500085D05000847
:100110005D0500085D0500085D0500085D05000837
:100120005D0500085D0500085D0500085D05000827
:100130005D0500085D0500085D0500085D05000817
:100140005D0500085D0500085D0500085D05000807
:100150005D0500085D0500085D0500085D050008F7
:100160005D0500085D0500085D0500085D050008E7
:100170005D0500085D0500085D0500080000000041
:080180005D0500085D050008A3
:1001880010B5054C237833B9044B13B10448AFF3C9
:1001980000800123237010BD000000200000000033
:1001A800AC050008084B10B51BB108490848AFF367
:1001B80000800848036803B910BD074B002BFBD02B
:1001C800BDE81040184700BF0000000004000020F0
:1001D800AC050008000000200000000021B1054B1C
:1001E8001A6B104318637047024A136B23EA000026
:1001F80010637047003802408088C0F308007047D9
:1002080010B4C1F3421201F01F040123A340012AD4
:1002180003D1828992B2134008E0022A03D1028AEC
:1002280092B2134002E0828A92B21340090A012274
:1002380002FA01F1028892B2114013B119B90020F3
:1002480002E0002000E001205DF8044B704700BF89
:1002580070B400233AE001229A400C68A24334D1DA
:1002680004685D000322AA40D24314400460066873
:100278000C79AC40344304600C79013CE4B2012CA5
:1002880015D884682240826084684A79AA4022434B
:10029800826046689AB20124944026EA04044460C5
:1002A80046688C7904FA02F292B232434260C4681A
:1002B8009AB256000322B24024EA0202C260C6681B
:1002C800CC7904FA05F23243C26001330F2BC2D94C
:1002D80070BC7047018370474183704782B00190BA
:1002E800019B5A1E0192002BFAD102B0704700BF41
:1002F80030B583B001212020FFF770FF4FF4C063B1
:10030800009301238DF8043000228DF80620032283
:100318008DF805208DF8073069460B48FFF798FFE0
:10032800094D4FF4C0612846FFF7D4FF074C20461B
:10033800FFF7D4FF4FF4C0612846FFF7CDFF2046F2
:10034800FFF7CCFFECE700BF00140240FFFF7F007F
:1003580082B00023019300932A4A136843F4803340
:100368001360284B1B6803F400330093019B01338F
:100378000193009B1BB9019BB3F5A04FF1D1214B11
:100388001B6813F4003F02D00123009301E000230F
:100398000093009B012B32D11A4B1A6C42F0805209
:1003A8001A6419490A6842F440420A609A689A60D5
:1003B8009A6842F400429A609A6842F4A0529A609D
:1003C800124A5A601A6842F080721A600D4B1B6814
:1003D80013F0007FFAD040F205720D4B1A60A3F5B6
:1003E80080639A6822F003029A609A6842F00202D7
:1003F8009A60044B9B6803F00C03082BF9D102B0F8
:10040800704700BF003802400070004008544007A1
:10041800003C024010B5104CD4F8883043F4700307
:10042800C4F888300D4B1A6842F001021A600021A6
:1004380099601A6822F0847222F480321A60084A9D
:100448005A601A6822F480221A60D960FFF780FF88
:100458004FF00063A36010BD00ED00E000380240DB
:1004680010300024704700BFFEE700BFFEE700BF62
:10047800FEE700BFFEE700BF704700BF704700BF40
:10048800704700BF704700BF08B540F225511A48B1
:10049800FFF7B6FE00282DD01748FFF7ADFEC0B213
:1004A800164B1B8813F4004F24D103F4804292B2F8
:1004B80062B10A2803D00022104B1A8008BD6FEAE7
:1004C80043436FEA53430D4A138008BD0D2804D1F6
:1004D80043F48043094A138008BDC3F30D02084959
:1004E800885401339BB2054A1380C72B02D90022D6
:1004F800024B1A8008BD00BF001001401C000020FC
:1005080020000020DFF834D0002103E00C4B5B58BA
:10051800435004310B480C4B42189A42F6D30B4A0D
:1005280002E0002342F8043B094B9A42F9D3FFF753
:1005380071FF00F011F8FFF7DBFE704700000220A2
:10054800CC0500080000002000000020000000206A
:1005580050010020FEE7000070B50E4B0E4CE41A67
:10056800A41000251E46A54204D056F82530984709
:100578000135F8E700F016F8084C094BE41AA41006
:1005880000251E46A54204D056F825309847013567
:10059800F8E770BDC4050008C4050008C8050008D0
:1005A800C4050008F8B500BFF8BC08BC9E467047F3
:0C05B800F8B500BFF8BC08BC9E467047B8
:0405C400AD0100087D
:0405C800890100089D
:040000050800050DDD
:00000001FF
