:020000040800F2
:1000000000500020C90400082D0400083104000835
:1000100035040008390400083D0400080000000011
:100020000000000000000000000000004104000883
:100030004504000800000000490400084D040008C1
:100040001105000811050008110500081105000838
:100050001105000811050008110500081105000828
:100060001105000811050008110500081105000818
:100070001105000811050008110500081105000808
:1000800011050008110500081105000811050008F8
:1000900011050008110500081105000811050008E8
:1000A00011050008110500081105000811050008D8
:1000B00011050008110500081105000811050008C8
:1000C00011050008110500081105000811050008B8
:1000D00011050008110500081105000811050008A8
:1000E00011050008110500081105000800000000B6
:1000F0000000000000000000000000000000000000
:0C01000000000000000000005FF808F1A3
:10010C0010B5054C237833B9044B13B10448AFF345
:10011C0000800123237010BD0400002000000000AB
:10012C0060050008084B10B51BB108490848AFF32F
:10013C0000800848036803B910BD074B002BFBD0A7
:10014C00BDE81040184700BF000000000800002068
:10015C0060050008040000200000000000B583B01A
:10016C000121102000F09EF84FF44043ADF804300C
:10017C0010238DF8073003238DF8063001A90348AE
:10018C0000F02EF803B05DF804FB00BF0010014036
:10019C0008B54FF48041024800F070F808BD00BF6C
:1001AC000010014008B54FF48041024800F068F897
:1001BC0008BD00BF0010014008B54FF400410248D3
:1001CC0000F05CF808BD00BF0010014008B54FF40A
:1001DC000041024800F054F808BD00BF0010014077
:1001EC00F0B4CB7803F00F02154613F0100F01D0CA
:1001FC008D7815430B78E3B10668002316E00122D5
:10020C009A400C8832EA04040FD19C000F27A740B7
:10021C0026EA070605FA04F42643CC78282C01D1EB
:10022C00426102E0482C00D102610133072BE6D970
:10023C0006600B88FF2B1ED94668002318E003F1DB
:10024C0008040122A2400C8832EA04040FD19C005D
:10025C000F27A74026EA070605FA04F42643CC78B4
:10026C00282C00D14261CC78482C00D1026101339A
:10027C00072BE4D94660F0BC704700BF01617047A2
:10028C0041617047042805D1054A136843F0040303
:10029C0013607047024A136823F00403136070471D
:1002AC0010E000E021B1054B9A691043986170474A
:1002BC00024A936923EA00009061704700100240E3
:1002CC0082B00023019300932C4A136843F48033CB
:1002DC0013602A4B1B6803F400330093019B01331A
:1002EC000193009B1BB9019BB3F5A06FF1D1234B7C
:1002FC001B6813F4003F02D00123009301E000239C
:10030C000093009B012B36D11D4B1A6842F0100252
:10031C001A601A6822F003021A601A6842F002028C
:10032C001A60A3F580535A685A605A685A605A6822
:10033C0042F480625A605A6822F47C125A605A68FD
:10034C0042F4E8125A601A6842F080721A600B4B41
:10035C001B6813F0007FFAD0084B5A6822F0030296
:10036C005A605A6842F002025A60044B5B6803F010
:10037C000C03082BF9D102B0704700BF00100240EB
:10038C000020024008B5FFF79BFF08BD08B5104BD5
:10039C001A6842F001021A6059680E4A0A405A6003
:1003AC001A6822F0847222F480321A601A6822F4DD
:1003BC0080221A605A6822F4FE025A604FF41F021F
:1003CC009A60FFF7DFFF4FF00062034B9A6008BDA5
:1003DC00001002400000FFF800ED00E008B500F04E
:1003EC0031F8FFF7BBFEFFF7D3FEFFF7E5FE4FF446
:1003FC00FA7000F045F8FFF7D5FEFFF7E7FE4FF473
:10040C00FA7000F03DF8054A136801331360642B51
:10041C00E9D10022014B1A60E5E700BF2000002063
:10042C00704700BFFEE700BFFEE700BFFEE700BF5E
:10043C00FEE700BF704700BF704700BF704700BFAA
:10044C00704700BF08B56FF00400FFF71BFF084BA7
:10045C001B68084AA2FB0323C3F34753064A1370D5
:10046C00C3EB431203EB8203DA00044B1A8008BD82
:10047C000000002083DE1B43240000202600002007
:10048C000C4B1B8800FB03F00B4B586000229A604E
:10049C001A6842F001021A60074B1B6803F0011343
:1004AC00012BF9D0044B1A6822F001021A600022C9
:1004BC009A6070472600002010E000E0002103E065
:1004CC000B4B5B58435004310A480B4B42189A4271
:1004DC00F6D30A4A02E0002342F8043B084B9A4246
:1004EC00F9D3FFF753FF00F00FF8FFF777FF7047D2
:1004FC0080050008000000200400002004000020FB
:10050C0028000020FEE700000E4B70B51E460E4C76
:10051C000025E41AA410A54204D056F825309847BB
:10052C000135F8E700F016F8084B094C1E46E41AA2
:10053C00A4100025A54204D056F825309847013563
:10054C00F8E770BD78050008780500087805000804
:10055C007C050008F8B500BFF8BC08BC9E46704787
:0C056C00F8B500BFF8BC08BC9E46704704
:040578003101000845
:04057C000D01000865
:0405800000A24A0487
:04000005080004C922
:00000001FF
